:020000040800F2
:10000000100B0020450100085B1C0008B519000812
:10001000591C000861080008E524000800000000E1
:10002000000000000000000000000000372200086F
:10003000E1080008000000008121000859220008A2
:100040005F0100085F0100085F0100085F01000810
:100050005F0100085F0100085F0100085F01000800
:100060005F0100085F0100085F0100085F010008F0
:100070005F0100085F0100085F0100085F010008E0
:100080005F0100085F0100085F0100085F010008D0
:100090005F0100085F0100085F0100085F010008C0
:1000A0005F0100085F0100085F0100085F010008B0
:1000B0005F0100085F0100085F0100085F010008A0
:1000C0005F0100085F0100085F0100085F01000890
:1000D0005F010008D92400085F0100085F010008E3
:1000E0005F0100085F0100085F0100085F01000870
:1000F0005F0100085F0100085F0100085F01000860
:100100005F0100085F0100085F0100085F0100084F
:100110005F0100085F0100085F0100085F0100083F
:100120005F0100085F0100085F0100085F0100082F
:10013000DFF80CD000F054FB00480047FD3C0008FD
:10014000100B00200648804706480047FEE7FEE700
:10015000FEE7FEE7FEE7FEE7FEE7FEE7FEE7FEE777
:10016000B122000831010008202A04DB203A21FADC
:1001700002F00021704721FA02F3D040C2F12002C0
:1001800091400843194670470649074A086850439A
:1001900043F2390210440860400870470149086082
:1001A00070470000780000206D4EC641D2B201E0D9
:1001B00000F8012B491EFBD270470022F6E710B56C
:1001C00013460A4604461946FFF7F0FF204610BDC5
:1001D000034611F8012B00F8012B002AF9D118462B
:1001E00070472DE9FE4F81EA030404F0004421F03A
:1001F000004100944FF0000B23F0004350EA01044B
:100200005ED052EA03045BD0C3F30A54C1F30A552B
:100210002C44A4F2F3340194A0FB0254C1F3130163
:1002200041F48011C3F3130343F4801301FB024430
:1002300000FB034E840A970A44EA815447EA835735
:10024000A4FB076802958D0A05FB07854FEA932CEE
:1002500004FB0C542705029D4FEA065847EA16375F
:10026000B5EB08056EEB070C870E920E47EA811777
:1002700042EA8312A7FB0201B6EB0B0164EB000418
:100280002B0D43EA0C335E1844EB1C50DA46514602
:10029000E7FB0201C5F313044FEA0B3343EA14539F
:1002A0004FEA0432019C43EA0603A4F10C040294D1
:1002B000009CCDE900B400F04DF903B0BDE8F08F2B
:1002C00000200146F9E72DE9F04D81EA030404F02E
:1002D000004B21F0004514464FF0000A23F0004186
:1002E00050EA050220D054EA01021DD0C5F30A5796
:1002F0000246C5F31303C1F31300C1F30A5640F4D9
:10030000801543F48013A7EB0608101BD64608F2AD
:10031000FD3873EB050002D308F1010801E09218E3
:100320005B41B8F1000F03DA00200146BDE8F08D13
:1003300000204FF48011064684460EE0171B73EB35
:10034000050705D3121B63EB050306434CEA010CBA
:1003500049084FEA300092185B4150EA0107EDD19D
:1003600052EA030012D082EA040083EA050108433E
:1003700005D0101BAB4106D20122002306E000226B
:100380004FF0004302E06FF0010253101AEB060039
:100390004CEB085110EB0A0041EB0B01BDE8F04DAE
:1003A00000F0C9B870B521F0004303430CD0C1F38D
:1003B0000A550024D5EB040564EB0403D617AD1AE7
:1003C000B34102DB0020014670BD201841EB025111
:1003D00070BDC10F80EAE0700844CA07962300216F
:1003E00000F07BB80EB5C10F80EAE0700844CA0780
:1003F000002140F233438DE80E000A460B4600F020
:10040000A9F803B000BD70B5C1F30A5201F0004570
:100410000024C1F3130140F2FF3341F480119A42EA
:1004200001DA002070BD40F233439A42A2F2334217
:1004300003DC5242FFF798FE00E090402C43F1D0DD
:10044000404270BDC1F30A5210B5C1F3130140F22E
:10045000FF3341F480119A4201DA002010BD40F2CE
:1004600033439A42A2F2334203DC5242FFF77CFE4E
:1004700010BD904010BD00F0004230F000400AD0A6
:10048000C10D01F56071C0F3160042EA0151C208C6
:1004900040071143704700200146704730B50B46B6
:1004A000014600202022012409E021FA02F59D42A4
:1004B00005D303FA02F5491B04FA02F52844151E78
:1004C000A2F10102F1DC30BD0029A8BF7047401C39
:1004D000490008BF20F00100704710B4B0FA80FC5A
:1004E00000FA0CF050EA010404BF10BC704749B197
:1004F000CCF1200421FA04F411FA0CF118BF012107
:1005000021430843A3EB0C01CB1D4FEA00614FEAE6
:10051000102042BF002010BC704700EBC3501044B5
:100520000029A4BF10BC7047401C490008BF20F040
:10053000010010BC704710B5141E73F1000408DAF6
:10054000401C41F1000192185B411A4301D120F097
:10055000010010BD2DE9F04D92469B4611B1B1FA54
:1005600081F202E0B0FA80F22032904600F04AF9BF
:1005700004460F4640EA0A0041EA0B0153465A4638
:10058000084313D0114653EA010019D0C8F14002C4
:100590005046FFF7E9FD05460E465046594642468D
:1005A00000F030F9084305D0012004E02046394628
:1005B000BDE8F08D0020054346EAE0762C43374342
:1005C0000A986305E40AA0EB08000022FD0A44EA49
:1005D00047540A3002D500200146E9E70105101909
:1005E0006941DDE9084500196941BDE8F04DA2E720
:1005F0002DE9FE4F804681EA0300C00F0C460090B3
:1006000021F0004123F00045B8EB0200A94105D2DA
:100610004046214690461C460B46024623F00040C9
:10062000104347D0270DC7F30A00C3F30A510290C5
:10063000401A019040286BDAC3F3130040F4801B8A
:100640000098924620B10023D2EB030A63EB0B0B18
:1006500001985946C0F14002504600F0D3F80646D2
:100660000D4650465946019A00F0DBF810EB0800A1
:100670006141002487EA115284EAE7731A4340D0AB
:10068000009A62B3019A012A4FEA075215DC001B57
:1006900061EB02014FF0004202EA0752CDE900424D
:1006A000001C41F5801132462B46FFF753FF03B083
:1006B000BDE8F08F40462146F9E7001B61EB0201DF
:1006C000001C41F5801300185B412018A2F50017AB
:1006D00047EB030140EAD570B6196D4111E06D0892
:1006E0004FEA360645EAC0754FEA0752001B61EB38
:1006F0000201001C41F5801149084FEA3000001941
:10070000514132462B4603B0BDE8F04FFFF713BF0F
:100710000098012240000023D0EB020263EBE0735B
:10072000009821464FEAE074B8EB000061EB040149
:10073000E9E783F000435BE781F0004158E72DE9EA
:10074000F04D00231A461B1A8A4103DB00200146A4
:10075000BDE8F08DC1F30A52C1F3130141F48015D5
:100760004FF0000BD10702D100186D41521E002737
:10077000044640F2FF11384601EB620A3E468046CD
:10078000024600204FF48011FFF7EEFCC2197141C0
:10079000BB1846EB0100B4EB030C75EB000C04D363
:1007A000E41A65EB000517460E46241908F101000E
:1007B0006D4180463428E3DDF91946EB0600091B3C
:1007C000A84103D24FF0FF32134601E00022134646
:1007D0001BEB070046EB0A51BDE8F04DFFF7ABBE3F
:1007E000064C074D06E0E06840F0010394E807007E
:1007F00098471034AC42F6D3FFF79EFC784E0008C1
:10080000984E0008202A04DB203A00FA02F100206A
:1008100070479140C2F1200320FA03F3194390403E
:100820007047202A06DBCB17203A41FA02F043EA50
:10083000E07306E041FA02F3D040C2F12002914099
:100840000843194670470EB540F23341029100212A
:10085000CDE900110A460B46FFF77CFE03B000BD50
:10086000FEE70000034A01465078127890430840A2
:10087000704700006800002001494978084070472F
:100880006800002070B5144D00241021284600F0A7
:1008900013FB00B901242021284600F00DFB00B90C
:1008A00002240821284600F007FB00B90424042193
:1008B0000A4800F001FB00B908244021284600F056
:1008C000FBFA00B910248021284600F0F5FA00B99F
:1008D0002024204670BD0000000C0140001401409F
:1008E000704700002DE9FF4F81B081468A46DDE95F
:1008F0000E080499884201D0012600E00026B9F1D3
:10090000800F32DABAF1400F2FDA08EB880111EBD1
:10091000090F2AD408EB48011AEB410025D42548D9
:10092000B8F1010F00EB82004FF0000750F8804C47
:100930001ED1002509EB070804F0010050EA06016A
:100940000AD008B1049A00E00E9A0AEB0500C1B281
:1009500008F0FF0001F022FB6D1C64086DB2062D4B
:10096000EADB7F1C7FB2062FE3DB05B0BDE8F08F2A
:1009700007FB089000250FFA80FB00BF04F0010080
:1009800050EA06010CD008B1049800E00E980090DF
:1009900005FB08A001B2434658461A4600F098F8F5
:1009A0006D1C64086DB2062DE8DB7F1C7FB2062F3C
:1009B000DEDBDAE7404400082DE9F0411C46DDF8B3
:1009C000188016460D460746434601F023FA2819BB
:1009D000401E01B243463246384601F01BFAA41EBF
:1009E0006D1C62B229B2434614460D46384601F0EA
:1009F0003CFAB819434622462946BDE8F041401E5C
:100A000000B201F032BA7047F0B50028059E05DA51
:100A10004442A24258DD1044C2B20020002905DA47
:100A20004C42A34250DD19444BB20021002A4BD066
:100A3000802849DA002B47DD402945DA8418802CCC
:100A400002DDC0F18002D2B2CC18402C02DDC1F12F
:100A500040035BB201F0070CA1EB0C010FB203EBFA
:100A60000C01FF25194B05FA0CF41844FB1707EB92
:100A70005373DB10E4B249B200EBC31022E0082943
:100A800004DAC1F1080725FA07F31C40134611E008
:100A9000C71700EB977727F00307C71B90F800C034
:100AA000BF5D2CEA040C274047EA0C075B1E00F8E8
:100AB000017BDBB2002BEBD1FF240839C2F18003AC
:100AC00049B218440029DADCF0BD000070010020B2
:100AD0002DE9F041884604465DB28718069E07E07E
:100AE00033462A464146204601F0BFF9641C24B231
:100AF000A742F5DCBDE8F0812DE9F0411D46DDF8A7
:100B000018800C46002805DA41428A422BDD104449
:100B1000C2B20020002C05DA61428D4223DD191992
:100B20004DB20024002A1ED080281CDA002D1ADDC8
:100B3000402C18DA8118802902DDC0F18001CAB288
:100B40006119402902DDC4F140014DB20646871803
:100B500007E043462A462146304601F086F9761CD6
:100B600036B2B742F5DCBDE8F08100002DE9F05F58
:100B700090F821100024022903D00421816301246C
:100B800085E001680A6822F00E020A6001680A68BE
:100B900022F001020A603F4E3E4FB215DFF8F4C06A
:100BA000DFF8F090DFF8ECA0DFF8E8B0DFF8E4E081
:100BB0000168783F13011502ACF1640CA9F15009EA
:100BC000AAF13C0AABF1280BAEF1140E4FF48018D9
:100BD000B14227D9B9420ED0614512D049451DD046
:100BE000514518D0594518D0714501D1424615E0FC
:100BF000294EB14201D1012210E0274E1436B142F4
:100C000001D110220AE0244E2836B14206D0224AF1
:100C10003C32914201D11A4600E02A461E49091F82
:100C20000A602BE0B94213D0614517D0494522D064
:100C300051451DD059451DD0714501D142461AE09C
:100C4000B14202D14FF0807215E0134EB14201D192
:100C5000012210E0104E1436B14201D110220AE0F8
:100C60000D4E2836B14206D00B4A3C32914201D19A
:100C70001A4600E02A46074980394A60012180F877
:100C80002110002180F82010416B01B188472046D7
:100C9000BDE8F09F800002400804024070B50446A1
:100CA00000F014F90546601C02D0044800780444A2
:100CB00000F00CF9401BA042FAD370BD08000020E0
:100CC0002DE9F84FDFF8C891002409F1040A0AF170
:100CD000040B23460F270BF1040ED1E00125A5409C
:100CE00006EA0502AA4276D1DFF8A8C14E68A6EB53
:100CF0000C0866452BD00DDC032E34D005DC36B352
:100D0000012E19D0022E2FD11BE0112E16D0122E3B
:100D10002AD119E0B8F5881F19D006DCB8F5803F54
:100D200015D0B8F5801F1FD111E0B8F5001F0ED007
:100D3000B8F5041F18D10AE0CB6815E0CB681B1D7D
:100D400012E0CB6808330FE0CB680C330CE08B6803
:100D50002BB1012B4FF0080303D0456104E00423BD
:100D600002E0056100E00023FF2A01D8064601E009
:100D700000F104064FEA840501D9A5F12005D6F853
:100D8000008007FA05FC28EA0C0803FA05F548EA92
:100D90000508C6F800804D68ED0070D53E4DAE697F
:100DA00046F00106AE61AD6924F0030605F00105C9
:100DB00000953A4D06EB050CDCF80850A607360FF7
:100DC00007FA06F825EA0805DFF8D480404503D184
:100DD0004FF0000825E052E0DFF8C880404502D11E
:100DE0004FF001081DE0DFF8C080404502D14FF010
:100DF000020816E0DFF8B480404502D14FF0030846
:100E00000FE0DFF8AC80404502D14FF0040808E065
:100E1000DFF8A080404502D14FF0050801E04FF017
:100E2000060808FA06F848EA0508CCF808804D6874
:100E3000D9F80060ED034D4601D5164300E0964316
:100E40002E604D68DAF80060AD03554601D51643B3
:100E500000E096432E604D68DBF80060ED025D46D1
:100E600001D5164300E096432E604D68DEF8006021
:100E7000AD02754601D5164300E096432E60641C12
:100E80000A681646E2407FF429AFBDE8F88F0000FB
:100E90000004014000001110001002400000014059
:100EA00000080140000C0140001001400014014006
:100EB00000180140001C01408068084000D001205B
:100EC00070470AB1016170470904FBE70148806877
:100ED0007047000008000020024881680278114431
:100EE0008160704708000020074810B5016841F094
:100EF00010010160032000F075F8002000F006F8F2
:100F000000F024F8002010BD0020024070B50D4D07
:100F100004464FF47A712878B1FBF0F00A49096869
:100F2000B1FBF0F000F034FC48B9102C07D20022DD
:100F30002146501E00F036F800206C6070BD012084
:100F400070BD000008000020140000200C4808B507
:100F5000816941F001018161816901F00101009124
:100F6000C16941F08051C161C06900F080500090BA
:100F70000448416821F0E06141F00071416008BD22
:100F80000010024000000140002809DB00F01F02B1
:100F9000012191404009800000F1E020C0F80011DB
:100FA00070470000F0B40E4B1B680C46C3F30223DD
:100FB000C3F10705042D00D90425191D072901D205
:100FC000002300E0DB1E012606FA05F1491E214040
:100FD00099409E40761E16403143F0BC01F0ACBAF9
:100FE0000CED00E0064900F0070208684FF6FF0329
:100FF000184040EA0220034A10430860704700008E
:101000000CED00E00000FA052DE9F0470F46050061
:1010100061D0434E306800F00700B84209D2306812
:1010200020F0070038433060306800F00700B84215
:1010300051D128683B4C810712D5400703D5606821
:1010400040F4E06060602878000703D5606840F4F1
:10105000605060606068A96820F0F000084360603C
:101060002878C00728D06868012810D02168022895
:1010700010D0890700292EDA616821F003010143AD
:101080006160FFF723FF804641F288390DE0216857
:101090008903EFE78901EDE7FFF718FFA0EB0801EF
:1010A000494502D90320BDE8F0876068696800F00F
:1010B0000C00B0EB810FEFD1306800F00700B842B0
:1010C0000BD9306820F0070038433060306800F0FA
:1010D0000700B84201D00120E5E72878400705D590
:1010E0006068E96820F4E0600843606028780007E1
:1010F00006D56068296920F4605040EAC10060604C
:1011000000F03EF86168084AC1F30311515CC84021
:101110000649086006480068FFF7F8FE0020C2E7AD
:10112000002002400010024040450008140000204A
:101130000C00002001490120C864704700004242B1
:101140000448054900684968044AC1F30221515C1A
:10115000C8407047140000200010024050450008AD
:101160000448054900684968044AC1F3C221515C3A
:10117000C84070471400002000100240504500088D
:1011800012A185B00FC98DE80F0014A0144A0068A1
:1011900004905168134801F00C03042B10D0082B65
:1011A0000ED1C1F38343C9031DF803000AD551686A
:1011B00004AAC1F34041515C0A4A5043B0FBF1F02C
:1011C00005B0704708494843FAE7000002030405E8
:1011D000060708090A0B0C0D0E0F10100102000083
:1011E0000010024000127A0000093D002DE9F84F7E
:1011F000040070D02078C04DC00749D06868C0F3A3
:101200008100012807D06868C0F38100022809D155
:101210006868C00306D52868800339D5606800284F
:10122000E7D035E06068B0F5803F0BD010B1B0F585
:10123000A02F11D0286820F480302860286820F47E
:10124000802002E0286840F480302860606890B117
:10125000FFF73CFE06460AE0286840F4802028603C
:10126000F0E700BFFFF732FE801B642873D82868C0
:101270008003F7D50CE0FFF729FE064605E000BF26
:10128000FFF724FE801B6428F0D828688003F7D479
:1012900020789A4E80074FF001094FF0000839D5A9
:1012A000686810F00C0F07D06868C0F3810002284E
:1012B00009D16868C00306D42868800714D520695E
:1012C000012808D110E02069B0B1C6F80090FFF7FE
:1012D000FDFD074605E00AE1FFF7F8FDC01B022807
:1012E000C4D828688007F7D52868616920F0F8001D
:1012F00040EAC10028600DE0C6F80080FFF7E6FD77
:10130000074604E0FFF7E2FDC01B022823D8286847
:101310008007F7D4207800072CD57948A169D9B186
:10132000C0F80090FFF7D2FD074604E0FFF7CEFDBE
:10133000C01B02280FD8686A8007F7D571484FF4A0
:10134000FA510068B0FBF1F0009000BF0098411E18
:101350000091FAD20EE080E0C0F80080FFF7B6FD01
:10136000074604E0FFF7B2FDC01B022875D8686A83
:101370008007F7D42078400760D5E8690027C000CF
:1013800008D4E86940F08050E861E869012700F07E
:10139000805000905C480168C90513D401688346F9
:1013A00041F480710160FFF791FD824606E000BFC5
:1013B000FFF78CFDA0EB0A0064284ED8DBF8000094
:1013C000C005F5D5E06801280AD008B1052813D07A
:1013D000286A20F001002862286A20F0040002E058
:1013E000286A40F001002862E06841F2883B98B129
:1013F000FFF76CFD82460BE0286A40F0040028628B
:10140000EEE700BFFFF762FDA0EB0A0159455AD88D
:10141000286A8007F6D50CE0FFF758FD824605E004
:10142000FFF754FDA0EB0A0159454CD8286A800704
:10143000F6D41FB1E86920F08050E861E06988B314
:101440006968C1F38101022944D00228C6F860808E
:1014500004D0FFF73BFD044638E034E0FFF736FDEB
:10146000074604E0FFF732FDC01B02282BD828688E
:101470008001F7D4206AB0F5803F05D16868A16883
:1014800020F4003008436860D4E908010843696823
:1014900021F4741108436860C6F86090FFF716FDE8
:1014A000044606E025E000BFFFF710FD001B022800
:1014B00009D828688001F7D51BE000BFFFF706FDBB
:1014C000001B022802D90320BDE8F88F286880019C
:1014D000F4D40EE00128F7D06868226A00F4803165
:1014E000914204D1616A00F47010884201D0012059
:1014F000EAE70020E8E70000001002400000424256
:1015000080044242140000200070004070B50400C6
:1015100005D00025A56294F8510010B106E0012025
:1015200070BD84F85050204600F02EF8022084F858
:1015300051002068016821F040010160D4E90101F7
:101540000843D4E903121143084361690843218B1E
:1015500001F400710843E1690843216A0843A16A64
:10156000084321680860A069042101EA104021684D
:1015700048602068C16921F40061C161656501208E
:1015800084F85100002070BD30B585B0002400946F
:10159000019402940394224D0368224802210322FD
:1015A000AB421FD1836943F480538361836903F4A1
:1015B00080530493836943F00403836180691A4D67
:1015C00000F004000490A020CDE9000103926946D8
:1015D0002846FFF775FB4020CDE900046946284600
:1015E000029419E0114CA34218D1C36943F480431B
:1015F000C361C36903F480430493836943F0080320
:1016000083618069039200F0080004904FF4204049
:10161000CDE9000169460648FFF752FB05B030BD31
:101620000030014000100240000801400038004036
:10163000000C01402DE9F84F044690F850000027B7
:101640001D461646894601280DD04FF0010B84F83F
:1016500050B0FFF73BFC804694F85100BA46012891
:1016600004D002278EE00220BDE8F88FB9F1000F08
:101670007DD0002E7BD0032084F85100C4F854A004
:10168000C4F83090A686E686C4F838A0A4F83CA03A
:10169000A4F83EA0C4F844A0C4F840A0A068B0F5E7
:1016A000004F04D12068016841F480410160206846
:1016B0000168490603D4016841F040010160E06817
:1016C000B0F5006F606803D030B3012E24D040E045
:1016D00008B1012E1CD1206B21680088C86006E08B
:1016E00020688168890709D5216B0988C160206B52
:1016F000801C2063E08E401EE08609E0FFF7E6FBD9
:10170000A0EB0800A84202D3681C01D031E07DB3F1
:10171000E08E0028E4D11FE0206B21680078087378
:1017200006E020688168890709D5216B0978017373
:10173000206B401C2063E08E401EE08609E0FFF72E
:10174000C5FBA0EB0800A84202D3681C01D010E042
:1017500075B1E08E0028E4D142462946204600F0CB
:1017600010FD08B120206065A06820B107E008E006
:10177000FFE7032706E02068C16880680090606D7D
:1017800000B1012784F851B084F850A038466BE7C7
:1017900010B5401EB0F1807F01D3012010BD4FF085
:1017A000E02460610F21601700F0C6FE0020A061F8
:1017B00007202061002010BD7047000070B502684E
:1017C00004461068D168536910F00F0F51D003F030
:1017D000010501F4907635435DD0C20705D0CA05F6
:1017E00003D5E26B42F00102E263420705D5DA0756
:1017F00003D0E26B42F00202E263820705D5DA070A
:1018000003D0E26B42F00402E263020705D5DA0777
:1018100003D0E26B42F00802E263E26B002A34D0AC
:10182000800604D5880602D5204600F07BFD20689E
:101830004069E16BC0F3801001F0080101432046CC
:1018400024D000F061FD2068416949061AD541693C
:1018500021F040014161606BA0B11B494163606BA5
:10186000FFF784F9002810D0606B416BBDE8704031
:10187000084783060FD58B060DD52046BDE870407E
:1018800000F050BD2046FFF797FF70BDFFF794FFB3
:101890000020E06370BD030606D50B0604D5204684
:1018A000BDE8704000F0E6BD4006F3D54806F1D52E
:1018B000D168204621F04001D160202184F8391000
:1018C00000F077F870BD0000F922000870B5040040
:1018D00004D094F83900002510B106E0012070BD55
:1018E00084F83850204600F023F8242084F839008A
:1018F0002068C16821F40051C160204600F05EFDFF
:101900002068016921F4904101612068416921F05A
:101910002A0141612068C16841F40051C160E5635A
:10192000202084F8390084F83A00002070BD0000BF
:1019300030B585B0002400940194029403940068AB
:10194000184988422CD11848816941F4804181614D
:10195000816901F480410491816941F00401816150
:101960008069124D00F0040004904FF40070009064
:10197000022001900320039069462846FFF7A0F952
:101980002815CDE90004694628460294FFF798F926
:10199000002211462520FFF705FB2520FFF7F4FA6A
:1019A00005B030BD00380140001002400008014081
:1019B00070477047FEE702F085FB02F071F9FCE723
:1019C00010B5384C012240212046FFF77AFA6420F6
:1019D000FFF764F9002240212046FFF772FA6420E5
:1019E000FFF75CF9012240212046FFF76AFAAE209A
:1019F00000F050FB002000F04DFB102000F04AFBEF
:101A0000402000F047FB812000F044FBCF2000F095
:101A100041FBA12000F03EFBC82000F03BFBA620CC
:101A200000F038FBA82000F035FB3F2000F032FB2F
:101A3000D32000F02FFB002000F02CFBD52000F07D
:101A400029FB802000F026FBD92000F023FBF120A9
:101A500000F020FBDA2000F01DFB122000F01AFB42
:101A6000DB2000F017FB402000F014FB202000F0EA
:101A700011FB022000F00EFB8D2000F00BFB142068
:101A800000F008FBA42000F005FBA62000F002FBFC
:101A9000002000F09BFA00F0D7FABDE81040AF201C
:101AA00000F0F8BA001001402DE9F04385B00025A0
:101AB00032480095019502950395816941F0200116
:101AC0008161816901F020010491816941F0040183
:101AD0008161816901F004010491816941F008018B
:101AE0008161816901F008010491816941F010016F
:101AF00081618069224F00F01000049001221021C2
:101B00003846FFF7DEF90122DFF8789016033146F8
:101B10004846FFF7D6F9DFF870800122C021404621
:101B2000FFF7CFF9102001248DE8310069463846CF
:101B30000394FFF7C5F80096CDE90145694648468C
:101B40000394FFF7BDF8C0208DE831006946404698
:101B50000394FFF7B5F80420CDE900056946029427
:101B60000A48FFF7ADF8F820CDE900056946029470
:101B70004846FFF7A5F805B0BDE8F0830010024025
:101B800000080140000C0140001001400014014019
:101B9000104810B50E4901604FF482714160002178
:101BA0008160C1604FF400720161C0E9051210222A
:101BB000C0E90721416281620A21C162FFF7A6FCE8
:101BC000002803D0BDE81040FEF71DBF10BD000087
:101BD0000030014080000020104810B50E4901601F
:101BE0004FF48271416000218160C1604FF4007246
:101BF0000161C0E905120822C0E907214162816242
:101C00000A21C162FFF782FC002803D0BDE8104022
:101C1000FEF7F9BE10BD000000380040D8000020DB
:101C20000C4810B50A4901604FF4E13141600021D0
:101C300081600C22C160C0E904128161C161FFF7BB
:101C400045FE002803D0BDE81040FEF7DCBE10BD05
:101C50000038014030010020FEE7704770B502F007
:101C6000CBF9050005D0044C60782070FEF70AFE21
:101C70006070284670BD000068000020002000F061
:101C8000A5B900002DE9FF4F81B08146DDE90E2E98
:101C9000002901DD084601E0C1F100004FEAE074CF
:101CA00000EB547424F00704A0EB04044FEAE17045
:101CB00001EB50704FEAE00603DAC4F10804A6F124
:101CC00001064FEAD205500700D06D1C00216FF0CD
:101CD000010ADFF83CB153E07218072A52DC524582
:101CE0004DDD002049E000BF00EB09077F2F46DCF7
:101CF000002F41DB002A1BDBBEF1010F45D0BEF1F6
:101D0000000F5AD0DDF80CC001FB03F7844417F82C
:101D10000C7009EBC21C0CEB0008CDF800801BF81E
:101D20000880A74087EA0807DDF800800BF80870F4
:101D300014B3072A20DA52451EDDBEF1010F4ED042
:101D40004FEAC21707F180074F4407440097DDF8B8
:101D50000C801BF807C001FB03F78044BEF1000FA5
:101D600017F80870C4F1080827FA08F74CD08CEA75
:101D7000070C009F0BF807C0401C9842B4DB491CBD
:101D8000A942A9DB05B0BDE8F08FDDF80CC001FB6E
:101D900003F7844417F80C8009EBC21707EB000C1B
:101DA000CDF800C01BF80CC008FA04F848EA0C088B
:101DB000DDF800C00BF80C80BAE7039F01FB03FCC1
:101DC00007441CF807C009EBC21707440CFA04FCCF
:101DD0001BF807800CEA080C0BF807C0A8E7D7012E
:101DE00080374F4407440097DDF80C801BF807C08C
:101DF00001FB03F7804417F80870C4F1080827FABC
:101E000008F74CEA070CB4E72CEA070CB1E700002E
:101E100070010020F0B585181E460C46002809DA2E
:101E200041428A4220DD104410F0FF0F4FF00000C5
:101E30001AD003E0002A17D0802815DA002C13DD11
:101E4000402C11DA002800DC0020074605E0E1B252
:101E5000F8B2324600F0A2F87F1C802D01DC284643
:101E600000E08020B842F2DCF0BDF0B58D181E46CF
:101E70000446002908DA484282421FDD501842B267
:101E80000021002A1ADD03E0002A17DD402915DAB7
:101E9000002C13DD802C11DA002900DC00210F4614
:101EA00005E0F9B2E0B2324600F078F87F1C402D30
:101EB00001DC284600E04020B842F2DCF0BD2DE90C
:101EC000FF43BDF90C20BDF90410DDF82C90501A29
:101ED000002800DC881ABDF90830BDF90020991AE5
:101EE000002900DCD11A884209DD012701A96846D2
:101EF00002F0BAF903A902A802F0B6F900E000273F
:101F0000BDF90000BDF90810884207DD02A9684646
:101F100002F0AAF903A901A802F0A6F9BDF8080089
:101F2000BDF80010401A05B2BDF90C10BDF904004F
:101F30000A1A002A00DC421A0FFA82F805EBD57261
:101F40005410884201DA01261FE04FF0FF361CE0F2
:101F50001FB1C1B2BDF8040002E0BDF80410C9B25F
:101F6000C0B24A4600F01AF8A4EB080004B2002CF4
:101F700006DABDF804003044ADF80400601904B27C
:101F8000BDF80000401CADF80000BDF90000BDF92F
:101F900008108842DCDDBDE8FF83000010B57F2813
:101FA00010D83F290ED8CB0800EBC31001F007046E
:101FB000054B0121A140002A1A5C01D00A4300E030
:101FC0008A431A5410BD00007001002000B1FF20A8
:101FD000044A00214FF480635054491C09B29942CD
:101FE000FADB70477001002030B50546002403E09D
:101FF00000F094F8641CE4B2285D0028F8D130BDEC
:1020000030B5154600F018F9002403E000F086F81A
:10201000641CE4B2285D0028F8D1204630BD0000E1
:102020007CB50246002407A1684600F05DFA6D46C3
:1020300004E000BF00F072F8641CE4B2285D0028E0
:10204000F8D17CBD2564000070B5202000F022F896
:10205000002000F01FF8212000F01CF8002000F004
:1020600019F87F2000F016F8222000F013F8002065
:1020700000F010F8072000F00DF8054D00244FF493
:102080008066285D00F028F8641CB442F9DB70BD5E
:102090007001002031B5002280210C48FEF711FFAD
:1020A0000B4D4FF48054002221462846FEF709FFCD
:1020B0004FF47A73012269460648FFF7BBFA012202
:1020C00021462846FEF7FDFE38BD00000010014005
:1020D000000C0140D800002031B5012280210C48BD
:1020E000FEF7EFFE0B4D4FF48054002221462846A8
:1020F000FEF7E7FE4FF47A73012269460648FFF7C0
:1021000099FA012221462846FEF7DBFE38BD000081
:1021100000100140000C0140D80000201CB5174CF5
:102120000A282278B4F906101FD0A0F120033F2B13
:1021300022D8A378CDE9003202466378B4F90400CE
:10214000FEF7D0FB2078A28800EB400102EB4101B2
:1021500009B2A0EB8000802202EB4000A1808842FF
:102160000ADABDE81C400A20D8E702EB420001EB86
:102170004000E0800020A0801CBD00000000002086
:10218000704738B50B46009204460022802100F0CB
:1021900008F8002804D0606D40F02000606503203E
:1021A00038BD2DE9F0411D4617460E460446DDF8C0
:1021B000188008E0681C06D0FEF788FEA0EB080037
:1021C000A8420BD255B12068806836EA000030D0B2
:1021D0000020B842EED10020BDE8F08120684168BF
:1021E00021F0E00141606068B0F5827F0BD1A0680A
:1021F000B0F5004F02D0B0F5806F04D120680168BF
:1022000021F040010160A06AB0F5005F09D12068AB
:10221000016821F4005101602068016841F4005117
:102220000160012084F85100002084F85000032050
:10223000D2E70120CDE77047014A9080D1807047F6
:102240000000002003494FF47A728870B2FBF0F06E
:10225000C870704768000020FEF73EBE30B58FB0F2
:1022600028216846FDF7A9FF14210AA8FDF7A5FF5C
:1022700001210804CDE900100024029402250491F4
:10228000CDE907504FF4E01009906846FEF7AEFF25
:102290000F20CDE90A056802CDE90C4002210AA809
:1022A0000E94FEF7B1FEFEF745FF0FB030BD000003
:1022B0000D48016841F00101016041680B4A11407D
:1022C000416001680A4A11400160016821F48021DF
:1022D0000160416821F4FE0141604FF41F018160FB
:1022E0000449C00308607047001002400000FFF876
:1022F000FFFFF6FE08ED00E010B5406A0021C18541
:10230000C184FFF759FA10BD0168CA6822F49072BF
:10231000CA6001684A6922F001024A61202180F8FE
:102320003A10704710B590F83A10222901D00220D7
:1023300010BD8168B1F5805F11D001690029016885
:102340001FD0496801F07F03816A4A1C82620B70CA
:10235000C18D491E0904090CC18518D02BE0026902
:10236000816A002A0268526805D0D2B20A80816A66
:10237000491C8162ECE7C2F308020A80816A891C69
:10238000F7E74A68816A4B1C83620A70E0E70168DC
:10239000CA6822F02002CA600168CA6822F480720A
:1023A000CA6001684A6922F001024A61202180F86E
:1023B0003A10FFF7FDFA002010BD00002DE9F041B2
:1023C000044600680169E26821F44051114301614B
:1023D0002169A0680843616908432168CA6841F21D
:1023E0000C639A430243CA6020684169A26921F4E0
:1023F0004071114341611E4920686425322688429C
:1024000002D1FEF7ADFE01E0FEF79AFE00EBC0013F
:1024100001EB001160686FF018078000B1FBF0F26B
:10242000B2FBF5F2B1FBF0F37A4303EB8202B1FBAE
:10243000F0F306EB0212B2FBF5F2B3FBF5F302F098
:10244000F00202EB0312B1FBF0F3B1FBF0F0B0FBD2
:10245000F5F0784303EB800006EB0010B0FBF5F0DD
:10246000216800F00F0010448860BDE8F081000092
:102470000038014090F83910212901D0022070471E
:102480008168B1F5805F016A0BD04A1C0262026864
:1024900009785160C18C491E0904090CC1840ED011
:1024A00017E009880268C1F3080151600169002939
:1024B000016A02D0491C0162ECE7891CFBE7016854
:1024C000CA6822F08002CA600068C16841F0400119
:1024D000C1600020704700000148FFF76FB900009D
:1024E00030010020FEE700000FB4084B10B504A92E
:1024F00002AA039800F068FB044602A9002000F03D
:1025000004FD204610BC5DF814FB00000B2F0008F2
:10251000490050EAC12018BF04204A0D18BF40F0FE
:10252000010040F2FF72B2EB515F08BF40F00200C1
:10253000012808BF052070470907090E002804DBA1
:1025400000F1E02080F80014704700F00F0000F167
:10255000E02080F8141D70472DE9F74F144694B021
:102560000021C4E902111599079121F00045C949DC
:102570008D4206DC1599C4E9000117B00020BDE8C2
:10258000F08FC549DFF814A3A9423CDD0799C44E7A
:102590000029C44FC44A1599534619DDFEF7C9F8FE
:1025A000554506D0C14AC24BFEF7C3F8C4E9000145
:1025B0000AE04FF0D352BE4BFEF7BBF832463B4623
:1025C000FEF7B7F8C4E9000117B00120BDE8F08FAD
:1025D000FEF70EF8554506D0B44AB54BFEF708F89D
:1025E000C4E900010AE04FF0D352B14BFEF700F806
:1025F00032463B46FDF7FCFFC4E9000117B04FF03F
:10260000FF30BDE8F08FAB49A942159978DB21F086
:10261000004183468846A84AA84BFDF7E2FD002208
:10262000A74BFDF7E5FFFDF7EEFE0990FDF7DAFE9B
:1026300006460F469C4A5346FDF7D3FD43465A468D
:10264000FEF77AF880468A46984A994B30463946D2
:10265000FDF7C7FD2A0D01250B9242465346FEF7B2
:102660006BF8032DC4E9000139D00B98C1F30A516E
:10267000401A05EB45111139814230DA9148C346C1
:10268000784400EB0510CDF80CA00C90D0E90023A5
:1026900030463946FDF7A5FD02460B4604910690EB
:1026A00058460399FEF745F880468A4602460B468F
:1026B00058460399FEF73DF8049B069AFEF739F851
:1026C00083460C9803913946D0E902233046FDF742
:1026D00088FD5A46039BFEF72CF86D1CBDE7079852
:1026E0000028A2BF099817B0BDE8F08F616881F09B
:1026F00000416160099817B04042BDE8F08FFFE7E4
:1027000084461598C1F31301C0F30A50A0F2F530C6
:102710004FEA601800F01F06C6F120001390002059
:102720000690079041F4801E05206D4676B1664AFA
:1027300008EB00017A4452F8213002EB8101B340EA
:102740004A68139922FA01F1194305E05F4908EB41
:102750000002794451F82210A1FB0E27A1FB0C13B3
:102760001A449A4234BF0123002303EB070A05EB06
:102770008003D3E901B70F448F4234BF0121002108
:1027800093448B4411B1934502D903E0934501D2A0
:10279000012100E00021C3E901B7514445F82010B0
:1027A000011EA0F10100C1DC0298059F00F100505C
:1027B000800F12900298DDE903568000FDF712FEAB
:1027C000834628460D91FEF73EF86FF01D02FDF797
:1027D000E9FDCDE90E013046FEF735F86FF03D0218
:1027E000FDF7E0FD80468A463846FEF72CF86FF08C
:1027F0005D02FDF7D7FD0746424653461191FDF7AE
:10280000F7FEDDE90E23FDF7F3FE5A460D9BFDF7BB
:10281000EFFE00250E465A4628460D9BFDF789FF20
:10282000DDE90E23FDF785FF42465346FDF781FFA4
:102830003A46119BFDF780FFDFF898A0244A5346E3
:10284000FDF7CFFC07468846234A244B31462846ED
:10285000FDF7C7FC3A464346FDF7CAFE07468846E1
:102860004FF0A842534631462846FDF7BAFC3A4697
:102870004346FDF7BDFE159A12F0004F04D0129AA0
:1028800081F0004152421292C4E90001129817B03F
:10289000BDE8F08FFB21E93F7CD90240FB21F93FE5
:1028A0007370032E8A19A33B000040543163621AEF
:1028B00061B4D03DFB21394183C8C96D305FE43F2D
:1028C0000000E03F04270000802600006226000090
:1028D000182D4454FB21F93D3326A611460B113C1B
:1028E0002DE9FF4D21F0004807460C46B8F1795F0D
:1028F00008DAFDF788FD002801BF0020324904B046
:10290000BDE8F08D3A46234610461946FDF769FCAE
:10291000054602462D480E460B460621784400F037
:102920005DF82A463346FDF75CFCDDE9022382466A
:102930008B4638462146FDF754FC04460F46524666
:102940005B4628463146FDF74CFC22463B46FDF7E8
:10295000F0FE07468A464FF0FF3228463146FDF723
:1029600021FD1B4A90450ADA3A465346FDF7E1FE3F
:1029700004B00022BDE8F04D134BFDF7DDBE154A53
:102980004245A8BFA8F500154FF00004B8BF124D8E
:1029900022462B46FDF7CDFE0646884622462B46AC
:1029A00000200949FDF7C5FE04460D463A46534648
:1029B00030464146FDF7BDFE04B022462B46BDE839
:1029C000F04DFDF7B9BE00000000F03F30240000DC
:1029D0003333D33F0000E93F0000D23F2DE9F041FF
:1029E0004F1E00EBC7010446D1E9000115461E4603
:1029F00037F006020DD02A463346FDF7F2FB7F1E64
:102A000004EBC703D3E90023FDF7F2FD37F006021C
:102A1000F1D1022F25D0042F13D0062F18BFBDE807
:102A2000F0812A463346FDF7DCFBD4E90A23FDF7A3
:102A3000DFFD2A463346FDF7D4FBD4E90823FDF732
:102A4000D7FD2A463346FDF7CCFBD4E90623FDF734
:102A5000CFFD2A463346FDF7C4FBD4E90423FDF736
:102A6000C7FD2A463346FDF7BCFBD4E90223FDF738
:102A7000BFFD2A463346FDF7B4FBD4E90023BDE889
:102A8000F041FDF7B5BD00002DE9FF4D054621F0F1
:102A9000004084B00C46B0F1795F0BDA2846FFF7AE
:102AA00037FD042808BF00F071F8284608B0214619
:102AB000BDE8F08D2A460B461046FDF792FB064610
:102AC0000F462A462346FDF78CFB804626488A4659
:102AD00032463B4605217844FFF780FF8346109835
:102AE000029160B3214A224B40465146FDF779FBE3
:102AF000CDE900015A4640465146029BFDF771FB65
:102B000082468846DDE906014FF0FF32FDF74AFCB8
:102B100052464346FDF70DFE32463B46FDF761FB4C
:102B2000DDE90623FDF705FEDDE90023FDF701FEE3
:102B300008B02A462346BDE8F04DFDF7FDBD0B4623
:102B40005A4630463946FDF74CFB084A084BFDF71C
:102B50004FFD42465346FDF744FB08B02A46234644
:102B6000BDE8F04DFDF744BD7623000049555555AD
:102B70005555C5BF0122FDF715BCFDF739BD002233
:102B8000134610461146FDF79EBB0000024A002086
:102B90001107FDF707BC000001FDFFFF02E008C8B8
:102BA000121F08C1002AFAD170477047002001E0C7
:102BB00001C1121F002AFBD17047000001490860C3
:102BC000704700007C0000202DE9FF4F8BB0884645
:102BD0000546002606E025280BD0DDE90D129047BA
:102BE0006D1C761C28780028F5D10FB03046BDE862
:102BF000F08F0024A146A2460122AE4900E0044322
:102C000015F8013F203B02FA03F00842F7D128787B
:102C10002A2810D06FF02F022878A0F1300109295E
:102C200015D809EB890102EB410144F0020400EBE5
:102C300001096D1CF0E758F8041B5FEA010903D590
:102C400044F40054C9F1000944F002046D1C2878D2
:102C50002E2817D115F8010F44F004042A280ED0AD
:102C60006FF02F022878A0F1300109290AD80AEB69
:102C70008A0102EB410100EB010A6D1CF2E758F8F2
:102C800004AB6D1C28786C280FD006DC4C2817D0BC
:102C900068280DD06A2814D104E0742810D07A284E
:102CA0000FD10DE044F400140AE044F4801401E074
:102CB00044F440146978814202D104F580146D1CFB
:102CC0006D1C2878692865D006DC00288DD0632823
:102CD00027D0642806D15DE06E2808D073282AD05A
:102CE000752877D0DDE90D129047761CE0E0C4F33B
:102CF0000250022809D003280DD0D8F8001004286B
:102D00000DD00E6008F10408D2E0D8F80010F217D8
:102D1000C1E90062F6E7D8F800100E80F2E70E7005
:102D2000F0E718F8041B8DF8001000208DF8010062
:102D3000EB46012003E058F804BB4FF0FF30610779
:102D40004FF0000701D40AE07F1C57450DDA874297
:102D5000FADB1BF807100029F6D106E07F1C87423A
:102D6000FCDB1BF807100029F8D1DDE90D23A9EBE6
:102D700007008146214600F0B1F83044C61904E04E
:102D8000DDE90D121BF8010B90477F1EF8D221469A
:102D9000484688E058F8040BC4F302514FF00A0B80
:102DA000032900D100B2042900D140B2002802DA80
:102DB00040422D2102E0210505D52B218DF824105C
:102DC000012104E006E0E10710D02021F6E708AF7A
:102DD000089113E058F8040BC4F302514FF00A0BAA
:102DE000032900D180B2042900D1C0B20021EEE74E
:102DF0005946FDF753FB303107F8011D0028F7D184
:102E0000ADEB070000F1200B600702D524F48034FD
:102E100001E04FF0010ADA4502DDAAEB0B0000E009
:102E20000020824600EB0B0108980144A9EB010049
:102E30000A90E00306D4DDE90D2321460A9800F04C
:102E40004DF806444FF0000908E009A911F80900FF
:102E5000DDE90D12904709F10109761C08998945B1
:102E6000F3DBE0030CD5DDE90D2321460A9800F0E1
:102E700035F8064404E0DDE90D1230209047761C59
:102E8000BAF10001AAF1010AF5DC05E0DDE90D1255
:102E900017F8010B9047761CBBF10001ABF1010B59
:102EA000F4DC0A982146DDE90D2300F005F806441C
:102EB0006D1C97E6092801002DE9F0410446002524
:102EC0001E461746880404D405E039462020B04742
:102ED0006D1C641EF9D52846BDE8F0812DE9F0414E
:102EE000044600251E469046C80301D5302700E061
:102EF0002027880404D505E041463846B0476D1CBC
:102F0000641EF9D52846BDE8F0810A68531C0B60A1
:102F1000107070472DE9F047DFF8A8802A4D07466A
:102F200098F808400898C4EBC40405EB44042770E3
:102F300061706280A380E0804FF4807001F078F8C7
:102F4000FDF750FA214A224BFDF74BF96FF00602CC
:102F5000FDF728FA05460E46022F2AD05FF0000042
:102F6000FDF740FA81468A462846314600F002FACB
:102F70004A465346FDF735F9FDF745FA20812846C4
:102F8000314601F0ABF84A465346FDF72AF9FDF702
:102F90003AFA6081D8F82000042F10D0A0EB80000E
:102FA0004030C0B2102800D2102020736073BDE8FA
:102FB000F087D8F82000000100F58070D0E7C0F15C
:102FC0002400EEE71800002070050020182D44545E
:102FD000FB2109402DE9F84F04460D4621F0004041
:102FE00000917349814211DC7249884201DC06D1AB
:102FF0002CB120462946BDE8F84FFFF7BBBD6E480F
:10300000002DCCBF6D496E49BDE8F88F6D498142F6
:1030100011DD6D498142D8BF4FF0FF366DDD20468E
:103020002946FFF775FA042808BFFFF7AFFD2046D1
:103030002946BDE8F88F6549654F25F00045814276
:1030400033DD6449814219DD002632464FF080436A
:1030500020462946FDF7CCFA80468A4601222046C2
:103060002946FDF79FF900223B46FDF762FB4246E9
:103070005346FDF728F904460D463EE0012600229E
:10308000BA463B4620462946FDF7B2FA80460F462F
:103090000022534620462946FDF74BFB42463B465D
:1030A000FDF711F904460D4627E04B4981421BDD2F
:1030B000DFF828A102260022534620462946FDF7C4
:1030C00090F800223B46FDF793FA80460F46002217
:1030D000534620462946FDF72CFB42463B46FDF76A
:1030E000F2F804460D4608E0032622462B4600204F
:1030F0003B49FDF7E8F804460D4622462B461046AC
:103100001946FDF76EF88B46824602460B46FDF7E0
:1031100068F807460246334888460B46062178443D
:10312000FFF75CFC52465B46FDF75BF882462E4893
:103130008B463A46434605217844FFF74FFC3A4612
:103140004346FDF74EF802460B46002E50465946C0
:103150000CDAFDF74DFA22462B46FDF742F801B096
:1031600022462B46BDE8F04FFDF7E6BAFDF740FAE0
:1031700022462B46FDF735F81C4A7A4402EBC6037B
:10318000D3E90023FDF7D5FA22462B46FDF7D1FA05
:10319000174A7A4402EBC603D3E90023FDF7CCFAC1
:1031A000009A002AB8BF81F00041BDE8F88F000006
:1031B000000010440000F07F182D4454FB21F93F1B
:1031C000FB21F9BF0000DC3F0000203E0000F33F80
:1031D0000000F03F0000E63F008003400000F83FA1
:1031E0000000F0BFFE1B0000BC1B00005A1B0000CB
:1031F000221B00002DE9F04D9446CCF1000423F091
:1032000000464CEA0404524F46EAD4749A46884673
:1032100021F00042BC4206D8454240EA050442EA99
:10322000D474BC4204D9BDE8F04D6246FFF7A5BC9A
:10323000AAF14055A5F17F6555EA0C040BD0022494
:1032400004EAAA74434DDFF810E144EAD87452EA64
:10325000000B04D00CE0BDE8F04DFFF7BBBE002C26
:1032600014BF012CBDE8F08D022C30D0032C32D0DD
:1032700056EA0C0B0AD0BE4220D1BA4209D126F040
:10328000804622F080423346114617E000291ADBBF
:1032900025E0DFF8C8B0FB44002C04BFDBE90001E7
:1032A000BDE8F08D012C02BFDBE9000181F0004197
:1032B000BDE8F08D022C0AD0032C0CD0BA4212D1FA
:1032C000B8F1000F0BDA23482549BDE8F08D2846F8
:1032D0002449BDE8F08D28467146BDE8F08D1D48B3
:1032E0002149BDE8F08D921B12153C2AC4BF194834
:1032F0001D490EDCBAF1000FBEBF12F13C0F0020D9
:10330000014606DB6246FCF7DEFF21F00041FFF7D5
:1033100061FE002C08BFBDE8F08D012C04BF81F0D8
:103320000041BDE8F08D114A114B022C07D0FDF78A
:1033300000FA2A46BDE8F04D0A4BFDF7FAB9FDF751
:10334000F8F92A46BDE8F04D064BFDF7F5B9000047
:103350000000F07F182D4454FB2109C0E61A00003C
:10336000FB21F9BFFB210940FB21F93F075C143326
:1033700026A6A13C00B5244B21F0004287B09A421A
:10338000DCBF0022134629DD204B9A4208D140B908
:103390004FF00100FFF712FCFFF7F1FB07B000BD93
:1033A00003DBFFF7E7FB07B000BD02AAFFF7D4F885
:1033B00010F0030104BF0DF1080C9CE80F000DD0C4
:1033C000012001290ED0022914D00DF1080C009023
:1033D0009CE80F00FFF758FB07B000BDFFF780FA2D
:1033E00007B000BD0DF1080C00909CE80F00FFF73E
:1033F0004BFB05E00DF1080C9CE80F00FFF770FA9D
:1034000007B081F0004100BDFB21E93F0000F07FE3
:10341000F8B50024194E1A4D5FF0010706EB840140
:10342000288AB1F900E000EB0410C21700EB9252B9
:103430006FF30902801A00F5807003B2B1F902C07F
:103440009EFBF3F09CFBF3F14030203195F9042012
:1034500000B209B2002A00DA52421A4413B29EFBAB
:10346000F3F29CFBF3F34032203312B21BB200970D
:10347000FEF725FD641C402CD0DBF8BDFC050020C8
:10348000180000202DE9FC475D4214468946064697
:103490004FF00A08092A07DD94FBF8F206EB8500D5
:1034A00000B2FFF7EFFF00E0002094FBF8F10746C1
:1034B00008FB11400849082301EB001201211020EC
:1034C000CDE90001F01900B24946FEF7DBFB07EB3E
:1034D00085000830BDE8FC87F84500082DE9F84F65
:1034E0000025DFF8F0803C4C0A27E079284490FB67
:1034F000F7F107FB1100C0EBC00108EB41000678B3
:10350000002E58D0B0F90610002951DB027BEAB337
:1035100001F5807109B2120292FBF1F202F0FF098B
:10352000B0F9022092FBF1F3A3EB590240320FFAFB
:1035300082FBB0F9042092FBF1F1A1EB590120319B
:103540000FFA81FAA16A884219D194F90400103067
:10355000C11700EBD160411100910221C81E00F09B
:1035600073FD009901FB00B00FFA80FB0221C81E19
:1035700000F06AFD009901FB00A00FFA80FA052E09
:103580001BD0164800EB8600001F00E010E0009002
:103590004FFA89F34A4651465846FDF735FA01205D
:1035A00000904FFA89F34A4651465846FDF704FA0F
:1035B0006D1C0A2D99DBBDE8F88FA07A00B10120BF
:1035C00000904FFA89F34A4651465846FDF794FA5F
:1035D000E5E700007005002018000020E84500081D
:1035E00010B50D4C6078002812D0FEF747FB20780C
:1035F000042803D0FFF70CFFFFF770FF00F04AF834
:1036000000F0A0F8A07A20B10020A0720020607025
:1036100010BD0120F9E70000180000202DE9FC474B
:10362000FEF72CFB184D282100242878DFF85C9049
:10363000C0F1780090FBF1F601274FF020084FF021
:103640001C0AB44201D1012100E000216878CDE9D3
:103650000087414304EB440009EB40120AEBC00031
:1036600000B218230C31FEF70DFB641C032CE8DBC1
:103670000820CDE900072023054A2C214420FEF72D
:1036800001FBBDE8FC87000064000020714B0008CE
:10369000914C00082DE9FC5F2848DFF8A4B04FF0FA
:1036A000080AB0F90C10CA1701EB12613C2202EBB8
:1036B00021214FB2B0F90E10CA1701EB12611C2282
:1036C00002EB21214EB28179807A0831C1F30315D2
:1036D0000021D0B1002489460BEBC508032094FBE0
:1036E000F0F194FBF0F200FB124031443844CDE994
:1036F00000A9491E401E09B200B242460823FEF747
:10370000C1FA641C092CE9DB0CE00D48042380306D
:103710001A46405D009106EB101100F00F0038448E
:10372000FDF7EAF90121CDE900A10BEBC502082361
:1037300031463846FEF7A6FABDE8FC9F1800002087
:10374000584500082DE9FC41314C01250C26207814
:1037500028B300212FA20846FEF752FC00230621C1
:103760001846E269FFF78EFE2CA200216220FEF7C8
:1037700047FC226A022306217820521CFFF782FEB2
:103780002078022815D0032820D004280FD12E211C
:1037900024A2312002B0BDE8F041FEF731BCCDE9F2
:1037A00000653223214A0C212720FEF76BFABDE881
:1037B000FC811E4ACDE90065442364320C211E20A1
:1037C000FEF760FA2E211AA21620E3E70E210B2045
:1037D00000F03AFC07B21C21192000F035FC134A16
:1037E000CDE9006500B24C23EC323946FEF74AFAC7
:1037F000E0780028DBD0A069C11700EB517121F0FF
:103800000701401A0428D2DA2E210DA21F20C1E799
:103810001800002053434F52450000004C455645C8
:103820004C000000504155534500000098460008E8
:10383000545259204E455854204C4556454C000092
:103840004E4557205245434F52442100F0B51A4E81
:1038500085B0B07800282CD0FEF710FA707820B12F
:10386000012805D0022822D105E000F029F81EE049
:1038700000F0C4F81BE0114D0024082729466846D3
:10388000FCF7A6FC1421684600F0E4FCC0B204EB8F
:10389000440107EB4101A0EB800009B26A464030C9
:1038A000FEF7AEFB0544641C6D1C082CE6DB002013
:1038B000B07005B0F0BD000048000020904A00083C
:1038C0002DE9F04F464D85B0288958B1002145A219
:1038D0000846FEF795FB06210020FEF7ADFC28897F
:1038E000FEF79EFB95F9060001274043C11700EB48
:1038F000D161202000EB611140290BDACDE90007EE
:103900003A4895F90720202300EBC21295F90500EB
:10391000FEF7B8F9DFF8C8A00024DFF8D490162627
:10392000B8460AF1100A4FF0100B00BF09EBC400B3
:1039300059F8342007791AF90400CDE900B8002CB1
:1039400001DD012100E00021C31700EB937001EBC2
:10395000810101EBA0013B4630B2FEF793F93E44F2
:10396000641C761C062CE1DB214E0024303628270F
:103970004FF04409314602A8FCF72AFC04EB44004E
:1039800007EB400001B295F90400844201D1012205
:1039900000E00022A9EB820002AAFEF731FB0644F8
:1039A000761C012C12D0641C042CE3DBCDF80080C3
:1039B00095F90400052300EB400007EB40011A468F
:1039C0003820FDF799F805B0BDE8F08FE87808B128
:1039D00008A000E008A0FEF707FB0224CAE70000E9
:1039E0004800002053434F52450000004048000863
:1039F000404A00084F4E00004F4646002DE9FC4764
:103A000034A204211620FEF7FBFA012380220C21A8
:103A10000020FEF7FFF9DFF8CCA000254FF00E09DB
:103A20000024C5EB051005EB8508870008EB0406AC
:103A3000092E4DD05FF00000A0EB800004EB4402A3
:103A400007EB400009EB4201001D00B209B226A2BB
:103A5000FEF7D6FA701C80B2FEF7E2FA23A0FEF75A
:103A6000C3FA3AF81600FEF7DBFA641C052CDDDB1E
:103A70006D1C022DD4DB012380222C210020FEF7B7
:103A8000C9F91BA230211020FEF7BAFA1B4C60893D
:103A9000FEF7C6FA1AA236211020FEF7B1FAE06846
:103AA0004FF46161B0FBF1F080B2FEF7B9FAE16862
:103AB0003C20B1FBF0F1B1FBF0F200FB121213A1BC
:103AC0006846FEF711FD6846FEF78EFABDE8FC87F2
:103AD0000120B1E7424553542031302053434F5227
:103AE00045530000FC0600205B0000005D20000044
:103AF000504C415920434F554E542000480000205F
:103B0000504C41592054494D452020002725303242
:103B10006422000070B500250420FCF7A3FE154CBC
:103B200030B194F90410481E207101D20320207195
:103B30000820FCF797FE38B194F90410481C207156
:103B4000032901D1002020713020FCF78BFE78B1D1
:103B500094F9040030B101280AD0022804D00328C7
:103B600006D103E0012503E0012000E0022060709F
:103B7000284670BD480000202DE9F041104C00257A
:103B8000C420A570A581E58125716571A071A5622C
:103B9000A572012000F018F8DFF82880002600BF89
:103BA00008EB8607FCF7F0FA40003880FCF7ECFAE7
:103BB0004000761C7880402EF2DB2582BDE8F08143
:103BC00018000020FC05002038B52449002220B14F
:103BD0000A704A61CA610A6202E0086A401C08620F
:103BE0004A721E4C0B6A01202434062B01D220702D
:103BF0004872012B03D14D7A60556D1C4D72D80768
:103C000004D0487A02252554401C4872980704D5F0
:103C1000487A03252554401C4872580701D4082BC4
:103C200004D1487A04232354401C48720C4B0020D2
:103C3000C0EBC004401C03F814200A28F8DBCA714A
:103C40000A724FF480500090B1F90E30B1F90C2097
:103C500000210120FFF75EF938BD000018000020A8
:103C6000700500200149782008707047640000202A
:103C700010B50A4800210122417001718270202292
:103C80008271064A084610326FF04704931D14549F
:103C90001954401C0628FADB10BD00004800002023
:103CA00070B5FDF7DBFF002822D0124C124D2078B2
:103CB00000EB400005EB8000406880470646207816
:103CC00000EB400005EB800080688047FEF7BCF900
:103CD000002E0DD02078012808D00120207000EBA4
:103CE000400055F82000BDE8704000470220F5E78D
:103CF00070BD0000440000201C480008FDF7F4F8E7
:103D0000FEF7ACFAFDF7D0FEFDF742FFFDF764FFCA
:103D1000FDF786FFFDF754FEFDF74DFEFCE70000C2
:103D200010B5FDF7D3F84FF0E0218969054A511A23
:103D30004822B1FBF2F100EB4002C2EBC01001EBF4
:103D4000C00010BD401901002DE9F843524E534DFB
:103D50001746884681460024C4EBC40006EB4000A9
:103D6000017891B3418802890A4402EB090141803C
:103D7000818842890A4402EB08018180C188394464
:103D800009B2C1800278032A0AD1002901DA427BF4
:103D900005E0027B437B9A4202D00AB1521E0273B5
:103DA000002F28DC002926DB3944012923D5B0F96E
:103DB0000210B5F90C20B5F90E308A1AB0F90410CA
:103DC000A1EB030102D4134601E014E05342B1F128
:103DD000000C01DAC1F1000C634503DB110004D5CE
:103DE000514202E0002900DA4942027BB1EBC21FD6
:103DF00001DA00F0C3F9641C0A2CADDBE8794FF05E
:103E00000A08C0EBC00106EB4101B1F90620B2F58A
:103E1000805F07DD00220A70401CB0FBF8F208FB4F
:103E20001200E871287A2978C0EBC00006EB400048
:103E30000129B0F906402BD1002C29DB0178052996
:103E400026D04078401CC7B2322F23D0687A00F0C9
:103E5000EFF8124924310E5C287A401CB0FBF8F2CE
:103E600008FB12002872FCF78FF940000FFA80F867
:103E7000FCF78AF9400002B2288C4346A4EB4010BC
:103E8000A0F5007000B2009039463046FFF742F8C6
:103E9000BDE8F8830526DFE7700500201800002044
:103EA0002DE9F0411C4C94F90600202802DA401C50
:103EB000A0710DE0192000F0BBF860716121202095
:103EC00000F0C2F84042A071042000F0B1F8E071A7
:103ED000114E00241036B71D305D395D491C49B2C2
:103EE000084445B2402D0FDB4025C421284600F090
:103EF000ABF8FCF76EFAFCF7BEFA00F085F981F03A
:103F00000041FCF780FA41B235553955641C062C46
:103F1000E2DBBDE8F0810000480000202DE9F0411F
:103F200000252E460120FCF7A7FC6C1E00B125469B
:103F30000220FCF7A1FC00B16D1C0420FCF79CFCE6
:103F400000B126460820FCF797FC00B1761C1DB195
:103F500016B14FF4C07001E04FF40070234CB4F977
:103F60000C1005FB0011A181B4F90E1006FB001026
:103F7000E08155EA060034D02846FCF72AFAFCF71F
:103F80007AFA07460D463046FCF723FAFCF773FA37
:103F90003A462B46FFF72EF90722FCF703FA144A9C
:103FA000144BFCF790F9FCF74DFAA179401A94F9FB
:103FB000051040B24A1C022A0BD9801C042810D8D4
:103FC000002901DD012000E00020A0EBD170081ADB
:103FD00006E0022807DC6FF00101884200DA08469B
:103FE0006071BDE8F0810220FAE7000018000020AF
:103FF000182D4454FB21094010B5FCF767FF0B490D
:104000000A793AB10A7A821A4A71CA88521CCA805D
:1040100000220A71CA68904201DA002010BDCA78F5
:104020000244C1E902020120087110BD68000020AD
:1040300010B5040006D0FCF7A7F890FBF4F104FBE0
:10404000110010BD002010BD10B50446884203DAEF
:10405000081BFFF7EDFF204410BD002801D0FCF73E
:104060009DB87047F0B5154B86B20A221E81144CDC
:1040700007E0521E092A02DA04EB42077D80002A7B
:1040800005DD04EB420535F8025C8542F1DB0A2AC6
:1040900001DA24F812605889401C5881D868084415
:1040A000D860104600E0401C0A28FCDB0020401CC1
:1040B0000A28FCDB02201870D0B2F0BD48000020B6
:1040C000FC06002010B50020FDF780FF3C20FEF725
:1040D000B9F8BDE81040FFF7C5BD000000B5254B9D
:1040E00021F0004287B09A4203DC0022134600927E
:1040F0002BE0214B9A4208D140B94FF00100FEF766
:104100005DFDFEF73CFD07B000BD03DBFEF732FDB1
:1041100007B000BD02AAFEF71FFA10F003014FF02E
:1041200001000DD0012914D002291AD00DF1080C7C
:104130009CE80F00FEF7D4FB07B081F0004100BD02
:104140000DF1080C00909CE80F00FEF79DFC07B0F5
:1041500000BD0DF1080C9CE80F00FEF7C1FB07B095
:1041600000BD0DF1080C00909CE80F00FEF78CFCE0
:10417000E2E70000FB21E93F0000F07F70B5214C31
:104180000E460546216A407801EBC10202EB01119F
:1041900000EB4100E169884200D80846E061022056
:1041A000FFF746FF4FF0FF3101EB4001F01706EB40
:1041B000D0526FF0010000EB6220082801DC0128DA
:1041C00006DB082802DC5012801E02E0082000E016
:1041D000012041436171A5622878052804D040215F
:1041E0002171032804D006E060202071022007E03E
:1041F000287B401E2873207808B1022801D10120B5
:10420000207070BD180000202DE9F04106460F46D1
:10421000FCF795FA04000D4618BF0120284320F052
:104220000040C0F17F6000F1E040C00F0ED0301CB4
:1042300018BF0120384320F00040C0F17F6000F13A
:10424000E040C00F04BF0120FEF7B8FC204629461D
:10425000BDE8F081024600E0521C491E02D31378EB
:10426000002BF9D1101A704702880B8803800A804E
:10427000704700002DE9F041514C012721780429B5
:104280001FD0B4F90C205042C31700EB9370B4F95F
:104290000E3086105842C51700EB957085109019A6
:1042A000A0815819E081A07962791044A07194F935
:1042B000040010F1400F14DD401E40B2207150B1D7
:1042C0000FE03020FCF7CEFA002873D027701E20B4
:1042D000A07067706EE00020A062022901D1FFF794
:1042E00073FC2078032805D094F904202946304631
:1042F000FFF72AFD94F90420324B002103EB8100E3
:10430000491CB0F800C04029B444A0F800C0B0F87F
:1043100002C0AC44A0F802C0F0DB208A1044C0F315
:10432000090020822078012801D0032836D1FFF728
:10433000F5FD2078012805D0A069401EA061A07875
:1043400028B32BE061691F4A491C6161E0798C3A0E
:10435000C0EBC00002EB4000B0F9060000280DDA07
:1043600003202070E069FFF77DFE28B10020E07097
:104370004FF4F070A06111E00120F8E7A07868B96F
:104380003020FCF76FFA48B10420207006E030209E
:10439000FCF768FA10B10120FFF716FC94F902004F
:1043A000002801DD401EA07067702078032801D12D
:1043B000A06910B10020BDE8F0810120FBE70000FA
:1043C00018000020FC0500200B494FF0030308787B
:1043D000401E10F0FF00A0F10F0292FBF3F3074A1A
:1043E000087022FA03F202F001024A7001D00020A4
:1043F0007047012070470000640000203AAAE3EEF5
:1044000070B50E4C00250126607880B13020FCF795
:1044100029FA10B100206070A670FBF7B5FE0446C3
:10442000FFF77EFC6040FFF718FE284670BDFFF7DF
:1044300037FDFFF76FFB0546EEE700004800002060
:104440000000000000700100C0000C00CAA77C0A38
:1044500042F55508534248195EF5511200300000EC
:104460000027450040941C0014F3190504F11104C1
:104470002004000004411004000400001042080160
:104480005E14450F40F001005955551351555D0D0F
:104490008C927C085755550D5E55550D51520C01A7
:1044A0005E55550F5655550F00A0000000A40000A2
:1044B00000C2280080A228008062080040500D0041
:1044C00000E318009C92241F5F555D0D9C1445115C
:1044D0005F1425075F5555115F5114015E54551D3A
:1044E0001F41101F40F44500100421071F41181DF3
:1044F0001F0441105EF0041F9C10041F5E54450F02
:104500005F9214035ED4451F5F92341B5655550DC0
:1045100041F005011F0421071F4208011FE4410F5C
:104520001743181D07C1090151564D1100F04500F0
:1045300000F0010040F4010080100C001004411054
:104540000000000000000000010203040607080943
:10455000000000000102030466243CFF3C5A5A3C60
:104560003013FD3C5AB5F4380C443F5DBCF46A305E
:1045700026126C9CFFED546408699FFCFC9F69083F
:104580006454EDFF9C6C1226306AF4BC5D3F440C11
:1045900038F4B55A3CFD13303C5A5A3CFF3C246673
:1045A0001C2FAD5A3CBFC80C0C562F3DBAFC223014
:1045B000262AB7FF393648641096F93F3FF996101E
:1045C00064483639FFB72A263022FCBA3D2F560CF4
:1045D0000CC8BF3C5AAD2F1C243433434241313008
:1045E000201011010203131455AA55AA3366CC9961
:1045F00000AA00AA55FF55FF78FCFE86FEFC780055
:1046000000000101010000008C8CFEFEFE8680008F
:1046100001010101010101000C86E6FEBEDCC000C3
:1046200001010101010301000426363EFEF4E00011
:104630000103030303010000E0F0D8FCFEFEC0000C
:104640000000000303030000383E3676F6E6E6007D
:10465000030303030301000078FEFF9FF8F87000D6
:1046600000000101010000000E0E06C6F67E0600E5
:104670000000070703000000EEFF3F7DF9FFE600A2
:1046800000010101010100003C7E7EE6FEFC7C0091
:10469000000207070301000003FFFFFF33F3FFFFE2
:1046A0008E0000E0F0F84878700090D848F8F8F0F4
:1046B0000000F0F8F81AFEFEFE00001838F8F8D8EE
:1046C000C07818000E8FB3BF1F0E0303030303004F
:1046D00003030303000003030303010001030303B7
:1046E00003030100000303030303030200060E0C8F
:1046F0000F070100000000030303000003FFFFFF9A
:10470000337B7B87C00018B878F8E0B81800E0F079
:10471000F81838B000E0F0F84878700004FEFEFEAB
:10472000000004FEFEFE00E0F0F84878700010F093
:10473000F8F810F8F80018FCFCFE1818008FBF9F5E
:104740000303030303030303010003030003030341
:10475000030000010303030100000303030301003E
:10476000030303030300030303030300030303031F
:104770000100030303030003030300010303030118
:104780000003030378FEFE870363E7EFEE6000900B
:10479000D848F8F8F0000010F8F8F810F8F8F81019
:1047A000F8F8F800E0F0F8487870000000000078B1
:1047B000FEFEC383070FFEFE78001838F8F8D8C055
:1047C000381800E0F0F84878700010F8F8F8181879
:1047D00000010103030303010000000103030303BD
:1047E00003010003030303000303030003030303A4
:1047F00000030303030100000000000001010303A4
:10480000030301010000000000030300000000009A
:10481000030303030100030303030300653C0008D3
:10482000C94300081D360008713C00080144000817
:104830004D380008793B000875420008E135000852
:104840000000000000F0FCFE1E3FFF8F1FFFFEFE79
:10485000FCF000000000000000000000000000006C
:10486000000000C0E0E0F3F7F7FEFFFFFFFFFFFFEF
:10487000FFFC7C3E1E1E1E3E3C3800000000000077
:104880000000030707030100E0F1FFFFFF3F1FFFE8
:10489000FFFFFEF800000000000000000000000024
:1048A00000000000000000000103070F1F1F1C0094
:1048B000071F7FFFFFFC70000000000000000000E9
:1048C00000000000000000000000000000000000E8
:1048D00000000000000000000000000000000000D8
:1048E00000000000808080A06060C08000000000A8
:1048F00000000000008080C0C0E0F0F8F8F8700010
:1049000078FEFFE5E5E5FFFFFFFFFEF9FFFFFEFE96
:10491000FEFEFEFFFFFFFFEFC7C383818080000024
:104920000001030307377B7D3D3E0E0F07030101A6
:10493000010000000101030307070F0F1F1F1F0FD6
:10494000000000000000000000000000F0FCFCFC83
:10495000FC18000000000000000000000000000043
:1049600000001C3E3F1F1F3F7EFCF8F0FFFFFFFFD3
:10497000F8C000000000000000000000000000007F
:10498000000000000000000000838FDFFFFFFFFF3A
:10499000FFFFFF7EFF97376FEEDC00000000000096
:1049A0000000000000001C3E3F1F0F030101010F2B
:1049B0003F7F7FFEFCF9FF7E7F3F0F00000000007D
:1049C00000000000000000000000000000008080E7
:1049D000808000000080C0C0E0E0E0E0C0C0800057
:1049E0000000000000808080C0C0C0BC7F7F8FF7C7
:1049F000F7FFFFFFFEFFE7A7A7BFFFFFFFFF7F1E39
:104A000000007CFEFF7F0F0F070707078FFFFFFFE8
:104A1000E7DB3B7B777F3F3F0F0101010000000098
:104A2000000000000000000000060F0F0F0F070736
:104A30000301000000000000000000000000000072
:104A4000EF4A0008100000000F4B00080D000000A6
:104A5000294B00080E000000294B00080E00000042
:104A6000454B00080B0000005B4B00080B000000EA
:104A700053544152542047414D4500534F554E44E5
:104A800020005245434F524400435245444954008C
:104A90002D20484F50504552202D00004E4F564576
:104AA0004D42455220323031370050524F47524527
:104AB0004D4D4544204259204F424F4E4F00005427
:104AC0004849532050524F4752414D2049530052BC
:104AD000454C454153454420554E444552005448A9
:104AE00045204D4954204C4943454E53452E000323
:104AF000FFFFFFFFFFC3C0C0C3FFFFFFFFFF03C0F7
:104B0000FFFFFFFFFFC10101C1FFFFFFFFFFC0F07B
:104B1000FCFEFEFF83030FFFFFFEFCF8000103070E
:104B20000707060607030301000CFEFEFFFFFF0256
:104B30000307FFFFFFFEF8303F7F7F7F7F6206079E
:104B40000707030100F8FCFEFFFF33333F3E3E380A
:104B5000000103070707060606030306FEFEFFFF24
:104B6000FF0C1F1F1F0E060707070707060600009A
:104B70000000000000000000008080808000000035
:104B800000000000000000000080E0F058AC56ABD0
:104B900055AB5500FF0101010202040810608000BE
:104BA000003FFFAA55AA55AA55AA55A85FAC5CAC10
:104BB0005CAC5CAC5C0CCF3C0000000103060D1A41
:104BC000152A252A252A252215120904020100008A
:104BD00000FFFF57AB57AB57AB57AB03FF8080804D
:104BE000000000000000000000FFFF55AA55AA5574
:104BF000AA55AA00FF000000010102040830C0000D
:104C0000001F7FD5AA55AA55AA55AA54AF56AE562D
:104C1000AE56AE562E86671E000000000103060D3C
:104C20000A151215121512110A09040201000000DA
:104C3000000000000000008080C0C0C0C0808080F4
:104C4000000000000000000000C0F078AC56AB553A
:104C5000AA55AA00FF000000010102040830C000AC
:104C600000FFFF55AA55AA55AA55AA00FFFEAE5649
:104C7000AE56AE56AE5607FE001F1715121512158A
:104C8000121512101F171215121512151215101FDA
:104C900000C0C6CFDFFFFB73037CFEFFC7E3FF7FCF
:104CA0003E00FFFFFF1B1B1B03000303FFFFFF036F
:104CB00003000000000000004FBB610567ACDD3F52
:104CC000182D4454FB21E93F9BF681D20B73EF3F33
:104CD000182D4454FB21F93FE2652F227F2B7A3CAB
:104CE000075C143326A6813CBDCBF07A8807703C64
:104CF000075C143326A6913CC4EB98999999C9BFD7
:104D0000711623FEC671BCBF6D9A74AFF2B0B3BF0B
:104D10009AFDDE522DDEADBF2F6C6A2C44B4A2BFCB
:104D20000D5555555555D53FFF8300922449C23F37
:104D30006E204CC5CD45B73F513DD0A0660DB13F6B
:104D4000EB0D76244B7BA93F11DA22E33AAD903F7D
:104D50004C5555555555A53F7751C1166CC156BF99
:104D60009015CB19A001FA3EAD529C804F7E92BEA9
:104D7000C4B1B4BD9EEE213ED43888BEE9FAA8BDC8
:104D8000000000000000000000004054FB21F93F3B
:104D90003163621A61B4D03D0000601A61B4D03D45
:104DA0007370032E8A19A33B0000002E8A19A33BBF
:104DB000C14920259A837B390000000000000000D3
:104DC0006E83F9A22915444ED15727FCC0DD34F576
:104DD000999562DB4190433CAB6351FE61C5BBDEFC
:104DE0003A6E24B7E0D24D42EA2E49061C92D10910
:104DF0001CEB1DFE3EA729B1F53582E88444BB2E8D
:104E000026709CE9417E5FB439D69139F4395383D9
:104E10008B5F849C3B28F9BDFF97F81F0F9805DE38
:104E20008B112FEF1F6D0A5ACF7E366DB709CB2736
:104E3000663F464F2DEA5F9EC7BA27757BF1E5EBCB
:104E4000F739073DEA92528AB15FFB6B085D8D1F0F
:104E5000A6F810111111813FD561C119A0012ABF17
:104E60007DFEB157E31DC73EEB9C2B8AE6E55ABE9B
:104E70007CD5CF5A3AD9E53D984E00080000002075
:104E8000800000009C2B0008184F000880000020C4
:104E9000900A0000AC2B0008010100000000000097
:104EA0000100000010000000000000000024F400D9
:104EB00000000000000000000000000000000000F2
:104EC00000000000000000000000000000000000E2
:104ED00000000000000000000000000000000000D2
:104EE00000000000000000000000000000000000C2
:104EF00000000000000000000000000000000000B2
:104F000000000000000000000000000000000000A1
:084F1000000000000000000099
:0400000508000131BD
:00000001FF
